:100000005FC100008DC100008BC1000089C10000EC
:1000100087C1000085C1000083C1000081C10000CC
:100020007FC100007DC100007BC1000079C10000DC
:1000300077C1000075C1000073C1000071C10000EC
:100040006FC100006DC100006BC1000069C10000FC
:1000500067C1000065C1000063C100000C94C408C2
:100060005FC100000C948E080C94650859C1000013
:1000700057C1000055C1000053C1000051C100002C
:100080004FC100004DC100004BC1000049C100003C
:1000900047C1000045C1000043C1000041C100004C
:1000A0003FC100003DC100003BC1000039C100005C
:1000B00037C1000035C1000033C1000031C100006C
:1000C0002FC100002DC100002BC1000029C100007C
:1000D00027C1000025C1000023C1000021C100008C
:1000E0001FC1000000002200250028002B002E0068
:1000F0003100340002010000050108010B0100007D
:100100002100240027002A002D00300033000101C7
:100110000000040107010A0100002000230026005E
:1001200029002C002F00320000010000030106010D
:10013000090105050505070508080808020202026D
:100140000A0A080804040404010101010101010173
:100150000303030303030303040707070C0C0C0C3E
:100160000C0C0C0C02020202060606060606060627
:100170000B0B0B0B0B0B0B0B0102102020080810B4
:100180002040102040800201020108040201010207
:1001900004081020408080402010080402018004E0
:1001A000020180402010080402010804020101023B
:1001B0000408102040800102040810204080005EE6
:1001C000BCE2613FDD83C29C7E20A3FD1F419DC335
:1001D000217FFCA2401E5F01E3BD3E6082DC237DE7
:1001E0009FC1421CFEA0E1BF5D0380DE3C62BEE019
:1001F000025CDF81633D7C22C09E1D43A1FF461847
:10020000FAA427799BC584DA3866E5BB5907DB85F4
:100210006739BAE406581947A5FB7826C49A653BA6
:10022000D987045AB8E6A7F91B45C6987A24F8A6D8
:10023000441A99C7257B3A6486D85B05E7B98CD206
:10024000306EEDB3510F4E10F2AC2F7193CD114FB4
:10025000ADF3702ECC92D38D6F31B2EC0E50AFF166
:10026000134DCE90722C6D33D18F0C52B0EE326C98
:100270008ED0530DEFB1F0AE4C1291CF2D73CA94C6
:100280007628ABF517490856B4EA6937D58B570974
:10029000EBB536688AD495CB2977F4AA4816E9B726
:1002A000550B88D6346A2B7597C94A14F6A8742A58
:1002B000C896154BA9F7B6E80A54D7896B350E09CD
:1002C00011241FBECFEFD1E2DEBFCDBF00E00CBFD7
:1002D00012E0A0E0B2E0ECE1F9E100E00BBF02C007
:1002E00007900D92A03AB107D9F723E0A0EAB2E057
:1002F00001C01D92A838B207E1F711E0C0E6D1E0D5
:1003000000E006C021970109802FFE010E94660AC5
:10031000CF35D10780E00807A9F7D3D70C948C0C10
:100320006FCE0895CF92DF92EF92FF920F931F93BB
:10033000CF93DF936C017A018B01C0E0D0E0CE1542
:10034000DF0589F0D8016D918D01D601ED91FC9109
:100350000190F081E02DC6011995892B11F47E01E1
:1003600002C02196ECCFC701DF91CF911F910F9171
:10037000FF90EF90DF90CF900895FC01918D828DDA
:10038000981761F0828DDF01A80FB11D5D968C91E9
:10039000928D9F5F9F73928F90E008958FEF9FEFF4
:1003A0000895FC01918D828D981731F0828DE80FB0
:1003B000F11D858D90E008958FEF9FEF0895FC016A
:1003C000918D228D892F90E0805C9F4F821B910937
:1003D0008F739927089589EA92E0F1DF21E0892B54
:1003E00009F420E0822F0895FC01848DDF01A80F1D
:1003F000B11DA35ABF4F2C91848D90E001968F734D
:100400009927848FA689B7892C93A089B1898C916B
:1004100080648C93938D848D981306C00288F38931
:10042000E02D80818F7D80830895EF92FF920F935E
:100430001F93CF93DF93EC0181E0888F9B8D8C8D90
:10044000981305C0E889F989808185FD23C0F62EBF
:100450000B8D10E00F5F1F4F0F731127E02E8C8D57
:10046000E8120BC00FB607FCFACFE889F989808142
:1004700085FFF5CFCE01B8DFF2CF8B8DFE01E80FFF
:10048000F11DE35AFF4FF0820B8FEA89FB898081CF
:10049000806207C0EE89FF896083E889F9898081DD
:1004A0008064808381E090E0DF91CF911F910F9174
:1004B000FF90EF900895CF93DF93EC01888D882310
:1004C000C1F0EA89FB89808185FD05C0A889B989C9
:1004D0008C9186FD0EC00FB607FCF5CF808185FF9D
:1004E000F2CFA889B9898C9185FFEDCFCE017CDF51
:1004F000E8CFDF91CF91089580E090E0892B19F04B
:100500006ADF811125C080E090E0892B41F080E016
:1005100090E0892B21F00E94000081111CC080E036
:1005200090E0892B41F080E090E0892B21F00E943F
:100530000000811113C080E090E0892BA1F080E0E1
:1005400090E0892B81F00E94000081110AC008957B
:100550000E940000D8CF0E940000E1CF0E9400005E
:10056000EACF0C94000008953FB7F8948091A5025B
:100570009091A602A091A702B091A80226B5A89BCF
:1005800005C02F3F19F00196A11DB11D3FBFBA2F25
:10059000A92F982F8827820F911DA11DB11DBC0185
:1005A000CD0142E0660F771F881F991F4A95D1F74A
:1005B00008958F929F92AF92BF92CF92DF92EF9267
:1005C000FF926B017C01D0DF4B015C01C114D104AF
:1005D000E104F104E9F0C8DFDC01CB0188199909D5
:1005E000AA09BB09883E9340A105B10578F321E033
:1005F000C21AD108E108F10888EE880E83E0981E3F
:10060000A11CB11CC114D104E104F10421F7DECF17
:10061000FF90EF90DF90CF90BF90AF909F908F9022
:100620000895DC01E0E0615038F08D91E827F0E0BA
:10063000E254FE4FE491F7CF8E2F0895FC01908194
:100640000180F281E02DF8948181892B81832281C0
:10065000892F809528232283A7E0B0E01197F1F736
:10066000218182238183A3E2B0E01197F1F7808199
:100670007894EFECF0E03197F1F7982381E009F4FA
:1006800080E00895EF92FF920F931F93CF93DF9333
:100690007C0108E010E0C0E0D1E0C701CFDF8111AC
:1006A000CD2BDD0F01501109C1F78C2FDF91CF91B8
:1006B0001F910F91FF90EF900895FC0190810180B0
:1006C000F281E02D892F809560FF12C0F89422817D
:1006D000822382838181892B8183A3E2B0E01197F9
:1006E000F1F78281982B9283789487ED90E011C086
:1006F000F8942281822382838181892B8183AFEFC9
:10070000B0E01197F1F78281982B928378948FE073
:1007100090E00197F1F70895CF92DF92EF92FF9268
:100720000F931F93CF93DF931F92CDB7DEB76C016A
:10073000E62E08E010E0FF24F39461E08F2D8E2177
:1007400009F460E0C6014983B8DFFF0C01501109CC
:1007500049810115110589F7411115C0F894D60199
:100760001196ED91FC91129791818C91809589233E
:1007700081831196ED91FC91129792818C918095D5
:100780008923828378940F90DF91CF911F910F91ED
:10079000FF90EF90DF90CF900895CF92DF92EF928D
:1007A000FF920F931F93CF93DF931F92CDB7DEB7C6
:1007B0008C01F62E40E065E57983AEDFCF2C7981A0
:1007C000D72E760188E0E80EF11CF60161916F01E9
:1007D00040E0C801A1DFCE14DF04B9F70F90DF912C
:1007E000CF911F910F91FF90EF90DF90CF900895E0
:1007F000FC0190810180F281E02DF8948181292F04
:1008000020958223818378948DE743E050E08150E6
:1008100021F1DA011197F1F730813923C1F3F8940E
:100820008281822382838181892B81837894ABE7C3
:10083000B7E01197F1F7F894818128232183A3E190
:10084000B1E01197F1F78081982381E009F080E011
:100850007894E3E6F6E03197F1F70895AF92BF920E
:10086000CF92DF92EF92FF920F931F93CF93DF937C
:100870001F92CDB7DEB75C01E62ED72EFC01858531
:10088000811158C0C501B4DF811105C0F50113867F
:100890001586148667C040E060EFC5013DDF01E0CA
:1008A000F12CC12C11E0C501C9DE682FC501698397
:1008B000C5DE6981613019F48130B9F432C04F2D41
:1008C00050E068131BC0F5018385181730F4E40F5E
:1008D000F51F8381802349F402C0181731F060E0CE
:1008E000193058F4F501148708C0F501EF0DF11D1A
:1008F0008381802B838361E009C0C12EF501E40F61
:10090000F51F9381802F809589238383C501D5DED0
:100910001F5F000F11F4F39401E0F7E0FF1508F0FA
:10092000C2CF113438F0F501C386C11015C081E083
:10093000858712C0F50113861586148680E0D501DF
:100940001396EE2DFD2D9501255F3F4F9D919193BF
:10095000A217B307D9F706C0F5018381882351F3A5
:1009600081E0EDCF0F90DF91CF911F910F91FF901C
:10097000EF90DF90CF90BF90AF9008950F931F93AB
:10098000CF93DF93DC0170E0AB0148585E4FFA0172
:1009900084916E5C7E4FFB0124912223C1F030E0F4
:1009A000220F331FF901E250FF4FC591D4912C5112
:1009B0003F4FF901059114912FB7F89498818095D4
:1009C00098239883F8019081892380832FBFFA01AF
:1009D00044914C93FB016491E62FF0E0EE0FFF1F72
:1009E000E85EFE4F8591949112969C938E93119799
:1009F0001B961C921B971D961C921D971C961C9271
:100A00001C97FD013B9613961292EA17FB07E1F73C
:100A1000DF91CF911F910F910895EF92FF920F9365
:100A20001F93CF93DF931F921F92CDB7DEB77C0148
:100A30008A01FC018581968169837A83D9DE698187
:100A40007A81F70185819681A8DE40E06EEBF7019F
:100A50008581968161DEF7018581968113DEF8013B
:100A60008083F701858196810DDEF8018183F7018E
:100A70008581968107DEF8018283F7018581968161
:100A800001DEF8018383F70185819681FBDDF801A2
:100A90008483F70185819681F5DDF8018583F7016F
:100AA00085819681EFDDF8018683F7018581968146
:100AB000E9DDF8018783F70185819681E3DDF8019F
:100AC0008087F701858196810F900F90DF91CF91FC
:100AD0001F910F91FF90EF908BCE4F925F926F928C
:100AE0007F928F929F92AF92BF92CF92DF92EF92BE
:100AF000FF92CF93DF93CDB7DEB761970FB6F8942F
:100B0000DEBF0FBECDBF5C01DC011596ED91FC91FF
:100B10001697138615861486DF011B9633961E9250
:100B2000AE17BF07E1F7BE01665F7F4FF501858114
:100B3000968194DE882321F067E0CE010A9671DD6C
:100B4000AE014F5F5F4FBE01665F7F4FC50165DF3E
:100B500068E0CE01019665DD9985891384C03981ED
:100B60002A81832F90E0922B2A852232C1F178F5D9
:100B7000203109F085C0F884BC0175956795072E72
:100B8000000C880B990BA9D520E030E040E85EE32B
:100B9000A5D44B015C018F2D90E02F81821B910920
:100BA000BC01990F880B990B98D52B013C016F2D37
:100BB00070E080E090E08FD59B01AC01C301B201F1
:100BC000F6D49B01AC01C501B40189D43AC02832E6
:100BD00031F02B3309F054C030FD4CC01BC02D81C7
:100BE0002F3391F198F42F3109F04AC0BC0133E062
:100BF000759567953A95E1F7072E000C880B990BD0
:100C00006CD520E030E040E05FE31AC02F3561F0A2
:100C10002F37B1F5BC01990F880B990B5ED520E0F9
:100C200030E040E85DE30CC0BC0175956795072E88
:100C3000000C880B990B51D520E030E040E05EE3DA
:100C400000D66B017C011CC0BC017595679575953C
:100C50006795072E000C880B990B3FD520E030E0FC
:100C600040E85EE3EDCFC12CD12C9EEFE92E92EC53
:100C7000F92E06C0C12CD12C80ECE82E8FE7F82E7F
:100C8000C701B60161960FB6F894DEBF0FBECDBFA7
:100C9000DF91CF91FF90EF90DF90CF90BF90AF901A
:100CA0009F908F907F906F905F904F900895CF931B
:100CB000DF93CDB7DEB729970FB6F894DEBF0FBE2E
:100CC000CDBFFB012081203111F1AE014F5F5F4F9D
:100CD000A4DE68E0CE010196A4DC9985891315C0D5
:100CE0008D818F3359F018F48F3189F009C08F3519
:100CF00019F08F3741F004C08BE00AC08AE008C0C9
:100D0000807F803F11F48CE003C080E001C089E067
:100D100029960FB6F894DEBF0FBECDBFDF91CF91FD
:100D20000895EF92FF920F931F93CF93DF93CDB768
:100D3000DEB761970FB6F894DEBF0FBECDBF8C0152
:100D4000DC011596ED91FC91169713861586148695
:100D5000DF011B9633961E92AE17BF07E1F7F8012D
:100D60001482FF24F394BE01665F7F4FD80115966D
:100D70008D919C91169772DD882309F44FC067E02E
:100D8000CE010A964EDC99898913EDCFD8018C915A
:100D9000811121C015968D919C91169729DDBE0178
:100DA000665F7F4FF80185819681F7DC40E064EB58
:100DB000D80115968D919C911697AEDCF80185812E
:100DC00096813CDCE82ED80115968D919C91169762
:100DD0000FDDEE2001F1AE014F5F5F4FBE01665F98
:100DE0007F4FC8011ADEF801E180BE01665F7F4FC8
:100DF000C8015DDF8E1520F4D80111968C9105C0D5
:100E0000BE01665F7F4FC80152DFF8018183848194
:100E10008F5F8483A8CFF801F082DDCF61960FB693
:100E2000F894DEBF0FBECDBFDF91CF911F910F9120
:100E3000FF90EF900895009761F0FC010190002071
:100E4000E9F73197AF01481B590BBC0189EA92E0E1
:100E500069CA80E090E00895CF93DF93ECDFEC0166
:100E600080E192E0E8DF8C0F9D1FDF91CF91089524
:100E70008F929F92AF92BF920F931F93CF93DF9366
:100E8000CDB7DEB7A1970FB6F894DEBF0FBECDBFCA
:100E900019A2423008F44AE08E010F5D1F4F842EE4
:100EA000912CA12CB12CA5019401EED2E62FB90111
:100EB000CA0101501109EA3014F4E05D01C0E95C97
:100EC000D801EC93232B242B252B69F7C801B3DF22
:100ED000A1960FB6F894DEBF0FBECDBFDF91CF91C4
:100EE0001F910F91BF90AF909F908F9008954F9258
:100EF0005F926F927F928F929F92AF92BF92CF92AA
:100F0000DF92EF92FF926B017C019B01AC01FCD45C
:100F1000882319F083E192E018C046015701E89454
:100F2000B7F82FEF3FEF4FE75FE7C501B401ECD40F
:100F300081110EC02FEF3FEF4FE75FE7C501B4010E
:100F400032D318162CF487E192E075DF7C0177C06C
:100F50002FEF3FEF4FE75FE4C701B6016ED41816DD
:100F60001CF48BE192E0F1CF2FEF3FEF4FE75FEC06
:100F7000C701B60118D387FDF4CF20E030E0A90106
:100F8000C701B60110D387FF11C0E091A902F0910B
:100F9000AA020190F081E02D6DE289EA92E01995B4
:100FA0005C01F7FAF094F7F8F09402C0A12CB12C90
:100FB0002AE037ED43EA5BE3C701B60190D22B018B
:100FC0003C015DD36B017C0186D39B01AC01C30165
:100FD000B20184D22B013C014AE0C701B60148DFCF
:100FE0007C01EA0CFB1C82E892E025DFE80EF91E8A
:100FF00020E030E040E251E4C301B20122D42B01F1
:101000003C013DD34B01A12CB12C4AE0C501B401F8
:101010002FDFE80EF91EC501B4015DD39B01AC01C1
:10102000C301B2015BD220E030E040E251E409D4D8
:1010300026D380E090E04AE01BDFE80EF91E80E155
:1010400092E0F9DE8E0D9F1DFF90EF90DF90CF9024
:10105000BF90AF909F908F907F906F905F904F90D8
:101060000895CF93DF93EC018D819E81C1DB40E039
:101070006CEC8D819E8150DB488164E48D819E8182
:101080004BDB8A818823E9F089818A3049F08B30F3
:1010900061F0893079F46EE570E080E090E00EC098
:1010A0006CEB70E080E090E009C067E771E080E001
:1010B00090E004C06EEE72E080E090E0DF91CF91AE
:1010C00078CADF91CF91089523D41F920F920FB663
:1010D0000F9211240BB60F922F933F934F935F9370
:1010E0006F937F938F939F93AF93BF93EF93FF93F0
:1010F00089EA92E079D9FF91EF91BF91AF919F91E9
:101100008F917F916F915F914F913F912F910F90B0
:101110000BBE0F900FBE0F901F9018951F920F924D
:101120000FB60F9211240BB60F922F938F939F93AC
:10113000EF93FF93E091B902F091BA028081E091C0
:10114000BF02F091C00282FD12C090818091C20264
:101150008F5F8F732091C302821751F0E091C2021A
:10116000F0E0E755FD4F958F8093C20201C080816A
:10117000FF91EF919F918F912F910F900BBE0F9048
:101180000FBE0F901F9018951F920F920FB60F92DF
:1011900011242F933F938F939F93AF93BF9380918D
:1011A000A1029091A202A091A302B091A402309159
:1011B000A00223E0230F2D3720F40196A11DB11DBD
:1011C00005C026E8230F0296A11DB11D2093A002A1
:1011D0008093A1029093A202A093A302B093A402D1
:1011E0008091A5029091A602A091A702B091A802B9
:1011F0000196A11DB11D8093A5029093A602A09314
:10120000A702B093A802BF91AF919F918F913F9198
:101210002F910F900FBE0F901F901895E9EAF2E002
:101220001382128288EE93E0A0E0B0E0848395837D
:10123000A683B78384E092E09183808385EC90E07D
:101240009587848784EC90E09787868780EC90E090
:10125000918B808B81EC90E0938B828B82EC90E081
:10126000958B848B86EC90E0978B868B118E128EFB
:10127000138E148E62E08AE793E080DB64E08CE6F4
:1012800093E07CDBE9E5F3E021E931E0328B218B6F
:101290008AE793E0968385831482108299E0918394
:1012A00081E082838383E6E4F3E0328B218B2CE6BA
:1012B00033E0368325831482108291838283838373
:1012C0000895789484B5826084BD84B5816084BDBE
:1012D00085B5826085BD85B5816085BD80916E00D4
:1012E000816080936E001092810080918100826005
:1012F0008093810080918100816080938100809142
:1013000080008160809380008091B1008460809330
:10131000B1008091B00081608093B0008091910015
:101320008260809391008091910081608093910010
:10133000809190008160809390008091A1008260F4
:101340008093A1008091A10081608093A100809191
:10135000A00081608093A000809121018260809331
:1013600021018091210181608093210180912001E0
:1013700081608093200180917A00846080937A005C
:1013800080917A00826080937A0080917A008160F7
:1013900080937A0080917A00806880937A0010921E
:1013A000C100E091B902F091BA0282E08083E0913D
:1013B000B502F091B6021082E091B702F091B80246
:1013C0008FEC80831092C102E091BD02F091BE02C9
:1013D00086E08083E091BB02F091BC028081806155
:1013E0008083E091BB02F091BC02808188608083A1
:1013F000E091BB02F091BC02808180688083E09123
:10140000BB02F091BC0280818F7D80838FE192E0EE
:1014100023DD89E593E085DC86E493E082DC88E5E2
:1014200092E009DD60915D0370E080E090E04AE0C9
:101430001FDD60914A0370E080E090E04AE018DD33
:101440008FE592E009DD89E692E0F5DC89E593E03D
:1014500008DE86E493E005DE84E892E0FDDC8AE8BD
:1014600092E0E9DC89E593E038DB41DD84E992E054
:10147000E2DC86E493E031DB3ADD68EE73E080E0A5
:1014800090E097D839D8DFCFA1E21A2EAA1BBB1B58
:10149000FD010DC0AA1FBB1FEE1FFF1FA217B30740
:1014A000E407F50720F0A21BB30BE40BF50B661F56
:1014B000771F881F991F1A9469F76095709580951A
:1014C00090959B01AC01BD01CF010895EE0FFF1F68
:1014D000881F8BBF0790F691E02D19945058BB27B9
:1014E000AA270ED070C161D130F066D120F031F45E
:1014F0009F3F11F41EF456C10EF4E095E7FB4CC17A
:10150000E92F72D180F3BA17620773078407950732
:1015100018F071F49EF58AC10EF4E0950B2EBA2FE7
:10152000A02D0B01B90190010C01CA01A0011124E9
:10153000FF27591B99F0593F50F4503E68F11A1695
:10154000F040A22F232F342F4427585FF3CF469526
:1015500037952795A795F0405395C9F77EF41F1648
:10156000BA0B620B730B840BBAF09150A1F0FF0F12
:10157000BB1F661F771F881FC2F70EC0BA0F621FFE
:10158000731F841F48F4879577956795B795F795EE
:101590009E3F08F0B3CF9395880F08F09927EE0F80
:1015A000979587950895D4D008F481E008950CD0DC
:1015B0000AC102D140F0F9D030F021F45F3F19F0B8
:1015C000EBC0511134C1EEC00FD198F39923C9F388
:1015D0005523B1F3951B550BBB27AA276217730739
:1015E000840738F09F5F5F4F220F331F441FAA1FED
:1015F000A9F333D00E2E3AF0E0E830D091505040AD
:10160000E695001CCAF729D0FE2F27D0660F771F5A
:10161000881FBB1F261737074807AB07B0E809F03C
:10162000BB0B802DBF01FF2793585F4F2AF09E3FD1
:10163000510568F0B1C0FBC05F3FECF3983EDCF3AE
:10164000869577956795B795F7959F5FC9F7880F4A
:10165000911D9695879597F90895E1E0660F771F9C
:10166000881FBB1F621773078407BA0720F0621B2D
:10167000730B840BBA0BEE1F88F7E0950895BCD06E
:1016800088F09F5790F0B92F9927B751A0F0D1F06B
:10169000660F771F881F991F1AF0BA95C9F712C0F5
:1016A000B13081F0C3D0B1E00895C0C0672F782F6A
:1016B0008827B85F39F0B93FCCF386957795679561
:1016C000B395D9F73EF490958095709561957F4FCD
:1016D0008F4F9F4F0895E89409C097FB3EF4909573
:1016E0008095709561957F4F8F4F9F4F9923A9F0FB
:1016F000F92F96E9BB279395F6958795779567958A
:10170000B795F111F8CFFAF4BB0F11F460FF1BC0CD
:101710006F5F7F4F8F4F9F4F16C0882311F096E960
:1017200011C0772321F09EE8872F762F05C066230E
:1017300071F096E8862F70E060E02AF09A95660FC7
:10174000771F881FDAF7880F9695879597F9089580
:10175000990F0008550FAA0BE0E8FEEF16161706C2
:10176000E807F907C0F012161306E407F50798F02A
:10177000621B730B840B950B39F40A2661F0232B43
:10178000242B252B21F408950A2609F4A140A695BF
:101790008FEF811D811D089597F99F6780E870E0A4
:1017A00060E008959FEF80EC089500240A941616D7
:1017B000170618060906089500240A94121613063F
:1017C000140605060895092E0394000C11F48823CD
:1017D00052F0BB0F40F4BF2B11F460FF04C06F5FE9
:1017E0007F4F8F4F9F4F089557FD9058440F551FBF
:1017F00059F05F3F71F04795880F97FB991F61F093
:101800009F3F79F087950895121613061406551F09
:10181000F2CF4695F1DF08C0161617061806991F75
:10182000F1CF86957105610508940895E894BB276A
:1018300066277727CB0197F908958ADF08F48FEFA1
:1018400008950BD0C0CFB1DF28F0B6DF18F0952394
:1018500009F0A2CFA7CF1124EACFC6DFA0F3959F4E
:10186000D1F3950F50E0551F629FF001729FBB2787
:10187000F00DB11D639FAA27F00DB11DAA1F649F33
:101880006627B00DA11D661F829F2227B00DA11DE6
:10189000621F739FB00DA11D621F839FA00D611D6C
:1018A000221F749F3327A00D611D231F849F600D8D
:1018B000211D822F762F6A2F11249F5750408AF0C6
:1018C000E1F088234AF0EE0FFF1FBB1F661F771F52
:1018D000881F91505040A9F79E3F510570F05CCF92
:1018E000A6CF5F3FECF3983EDCF38695779567953E
:1018F000B795F795E7959F5FC1F7FE2B880F911D70
:101900009695879597F9089523DF880B990B08958D
:0C19100081E090E0F89400C0F894FFCF54
:10191C000000000015029201DF01BD01D1015B0244
:10192C000D0A006E616E00696E66006F766600448B
:10193C00616C6C61732054656D7065726174757245
:10194C006520436F6E74726F6C204C6962726172A9
:10195C00792044656D6F202D2054776F50696E5F30
:10196C004453313842323000466F756E642000208B
:10197C00646576696365732E005265717565737461
:10198C00696E672074656D706572617475726573CC
:10199C002E2E2E0020646F6E6500496E686F757375
:1019AC00653A20004F7574686F7573653A200000B6
:00000001FF
